:02000000562880
:08000800FF00030E8312031335
:10001000A0000A0EA100040EA2008A110A1259289B
:1000200083120313A30108002030831603139F00DB
:100030000430831203179F008316031306088312EC
:10004000A4001030831606048600293083129F0016
:10005000A5012830250203182F28A50A29280230D7
:100060001F049F009F1832282408831686008312DD
:1000700003179E019F0103139F01080083120313BE
:100080001E08A4000800831203179E019F01C030C0
:10009000831603138100102014203E202408A3009F
:1000A000831687018312230887004C288A110A12BD
:1000B000432883120313220E8400210E8A00200E8F
:0800C0008300FF0E7F0E090012
:02400E00D530AB
:00000001FF