:02000000502886
:08000800FF00030E8312031335
:10001000A0000A0EA100040EA2008A110A125328A1
:10002000A508031D14280800F930FF3E031D1528FC
:100030000000A50B1428080083120313230EF039C7
:10004000A400A3010800831603130712A130831232
:1000500003179A000313A401A301080083120317D6
:100060009E019F01C0308316031381002320831655
:1000700081160112F03001058312A500013025041C
:10008000831681008B178B168312230AA300831615
:1000900086018312240886000130A5001020442820
:1000A0008A110A122E280B1D57281C200B118312AF
:1000B0000313220E8400210E8A00200E8300FF0EFF
:0400C0007F0E0900A6
:02400E00D530AB
:00000001FF