:02000000422894
:08000800FF00030E8312031335
:10001000A0000A0EA100040EA2008A110A124528AF
:10002000A508031D14280800F930FF3E031D1528FC
:100030000000A50B14280800FA30A5001020FA30A3
:10004000A5001020FA30A5001020FA30A5001020DD
:10005000A40B1C280800831203179E019F01C030C7
:10006000831603138100FF308312A300FF302306A1
:10007000A300831687018312230887000130A400A0
:100080001C2036288A110A122B2883120313220EF1
:100090008400210E8A00200E8300FF0E7F0E0900CF
:02400E00D530AB
:00000001FF