:020000006C286A
:08000800FF00030E8312031335
:10001000A0000A0EA100040EA2008A110A126F2885
:10002000A608031D14280800F930FF3E031D1528FB
:100030000000A60B14280800FA30A6001020FA30A1
:10004000A6001020FA30A6001020FA30A6001020DA
:10005000A50B1C2808000130831203132406A400FA
:100060000800831203132403031D42282303031DE6
:100070003C288030A3004E282308A5000310250C3F
:10008000A3004E282308803A031D49280130A3000D
:100090004E282308A5000310250DA300A308031D67
:1000A00008000130A3000800831203179E019F017E
:1000B000C03083160313810001178B170B168312B0
:1000C000A301A4013120831687018312230887002E
:1000D0000130A5001C2062288A110A1254288B1CAA
:1000E00073282B208B1083120313220E8400210E01
:0C00F0008A00200E8300FF0E7F0E090026
:02400E00D530AB
:00000001FF