:020000004E2888
:08000800FF00030E8312031335
:10001000A0000A0EA100040EA2008A110A125128A3
:10002000A508031D14280800F930FF3E031D1528FC
:100030000000A50B14280800FA30A5001020FA30A3
:10004000A5001020FA30A5001020FA30A5001020DD
:10005000A40B1C280800831203132303031D332859
:100060008030A30008002308A4000310240CA30080
:100070000800831203179E019F01C03083160313EB
:10008000810080308312A3002B2083168701831206
:10009000230887000130A4001C2044288A110A127A
:1000A000392883120313220E8400210E8A00200EA9
:0800B0008300FF0E7F0E090022
:02400E00D530AB
:00000001FF