:020000006A286C
:08000800FF00030E8312031335
:10001000A0000A0EA100040EA2008A110A126D2887
:100020002030831603139F000430831203179F00B0
:100030008316031306088312A500103083160604E6
:100040008600293083129F00A6012830260203185B
:100050002B28A60A252802301F049F009F182E284F
:10006000250883168600831203179E019F01031340
:100070009F010800831203131E08A500080010202A
:100080003A202508A400240EF039A40008008312A9
:1000900003132408003C031808002403A400472885
:1000A000FF3083120313A300A40108008312031777
:1000B0009E019F01C03083160313810050203F2012
:1000C000FF302306A30083168701831223088700CD
:1000D00047205F288A110A12562883120313220E22
:1000E0008400210E8A00200E8300FF0E7F0E09007F
:02400E00D530AB
:00000001FF