:020000007E2858
:08000800FF00030E8312031335
:10001000A0000A0EA100040EA2008A110A12812873
:10002000A608031D14280800F930FF3E031D1528FB
:100030000000A60B14280800FA30A6001020FA30A1
:10004000A6001020FA30A6001020FA30A6001020DA
:10005000A50B1C280800831203132403031D3C284E
:100060002303031D36288030A30048282308A50059
:100070000310250CA30048282308803A031D4328B9
:100080000130A30048282308A5000310250DA30074
:10009000A308031D08000130A3000800A6012508DD
:1000A000A800A808031D57280430A6005828A60158
:1000B0002608831605048500831226080505A70077
:1000C000A801A708031D28140800831203179E0126
:1000D0009F01C0308316031381008312A301A40182
:1000E000A5014E202808A4002B2083168701831227
:1000F000230887000130A5001C2070288A110A12ED
:10010000652883120313220E8400210E8A00200E1C
:080110008300FF0E7F0E0900C1
:02400E00D530AB
:00000001FF